:06035100000000000000A6
:10011200E4F508F509780A7C00FD7BFF7A03795142
:10012200FE7F061200D37510FF12029A7FF47E0141
:1001320012027A120202EF24D0602524F3603F24D7
:10014200DA602F243270E57F31120349E50925E098
:10015200FFE50833FEEF2401F509E43EF50880CC03
:10016200E50925E0F509E50833F5087F3012034972
:1001720080BA7F01120341E4F508F50980AEE4FD7F
:10018200C374039D25E025E0F9FCE92404FFE43370
:10019200FEECC39FEE6480F87480985026E509AEA9
:1001A20008A804088005CEC313CE13D8F95401FF62
:1001B200740A2DF8E6FE25E02FFF740A2DF8A60733
:1001C2000C80C7740A2DF8E6FFC39400400CEFD3ED
:1001D20094095006743026F6800AEFC3940A40044C
:1001E200E62437F6750E480DED64047093E4FD7F46
:1001F200011202E77B007A00790A1202C202012E82
:100317003031633D000000000000000000000000D5
:10020200E4F51275A0F0E5A064F0605AAFA0EF2407
:1002120090601B24C0601224E0600924F070127503
:100222001201800D75120280087512038003751287
:100232000475A00FAFA0EF24F9601824FC6010240D
:10024200FE6008147013851212800E740480067406
:10025200088002740C2512F512E5A0B40FFBE5121A
:0802620090031693FF227FFFB9
:01026A002271
:0F026B00C291C2928F807F027E0012027AD292DD
:10027A00E4FDFCC3ED9FEC9E5015E4FBFA0BBB00BA
:0F028A00010AEB64704A70F50DBD00010C80E4B1
:010299002242
:08034100C29012026BC292226D
:08034900D29012026BC2922255
:1002C2008B128A138914AB12AA13A9141200F960B3
:1002D200130514E5147002051314F91200F9FF1244
:0502E200034980E22247
:050357007F0C020341D0
:05035C007F08020341CF
:1002E7008F12A905E5127007E92480FF120341E583
:0C02F70012B40107E924C0FF12034122E9
:100303007F381203417F0C1203417F061203417FA2
:04031300010203419F
:0E03270057656C636F6D65210062797363002A
:10029A001203037BFF7A0379271202C2E4FD7F016E
:1002AA001202E77BFF7A0379301202C27FF47E01E1
:0802BA0012027A7F01020341E8
:03000000020335C3
:0C033500787FE4F6D8FD758114020112F7
:10000300E709F608DFFA8046E709F208DFFA803EDF
:1000130088828C83E709F0A3DFFA8032E309F608CC
:10002300DFFA8078E309F208DFFA807088828C8334
:10003300E309F0A3DFFA806489828A83E0A3F608E8
:10004300DFFA805889828A83E0A3F208DFFA804CC2
:1000530080D280FA80C680D4806980F28033801099
:1000630080A680EA809A80A880DA80E280CA803302
:1000730089828A83ECFAE493A3C8C582C8CCC5837A
:10008300CCF0A3C8C582C8CCC583CCDFE9DEE7804A
:100093000D89828A83E493A3F608DFF9ECFAA9F0C9
:1000A300EDFB2289828A83ECFAE0A3C8C582C8CC1F
:1000B300C583CCF0A3C8C582C8CCC583CCDFEADE38
:1000C300E880DB89828A83E493A3F208DFF980CC9A
:1000D30088F0EF60010E4E60C388F0ED2402B40493
:1000E3000050B9F582EB2402B4040050AF2323453A
:0600F3008223900053730C
:1000F900BB010689828A83E0225002E722BBFE0205
:09010900E32289828A83E4932237
:00000001FF
