:06050700000000000000EE
:1002FB007508007509FF780A7C007D007BFF7A0585
:10030B0079077E007F061200D37510FF751210124D
:10031B0004507FE87E031204301203858F11EFF433
:10032B0060F0E50925E0FFE50833FEE5117C00B43C
:10033B0031047D0180027D00EF2DF509EE3CF508BF
:10034B007F011204F7E4FD7F0112049DAF1112042B
:10035B00FFE4FDFF12049D751210E51260B4151237
:10036B00E509AE08A812088005CEC313CE13D8F941
:0A037B0054012430FF1204FF80E05B
:1004CD00303130313030303030303030303030004D
:10038500E4F51375A0F0E5A064F0605AAFA0EF2482
:1003950090601B24C0601224E0600924F07012757F
:1003A5001301800D751302800875130380037513FF
:1003B5000475A00FAFA0EF24F9601824FC60102489
:1003C500FE6008147013851313800E740480067480
:1003D500088002740C2513F513E5A0B40FFBE51393
:0803E5009004CC93FF227FFF7E
:0103ED0022ED
:0F042100C291C2928F807F027E00120430D2926D
:10043000E4FDFCC3ED9FEC9E5015E4FBFA0BBB0002
:0F044000010AEB64704A70F50DBD00010C80E4F9
:01044F00228A
:0804F700C290120421C29222FE
:0804FF00D290120421C29222E6
:100478008B138A148915AB13AA14A9151200F960F5
:10048800130515E5157002051414F91200F9FF1289
:0504980004FF80E222D8
:05050D007F0C0204F761
:050512007F080204F760
:10049D008F13A905E5137007E92480FF1204F7E512
:0C04AD0013B40107E924C0FF1204F72279
:1004B9007F381204F77F0C1204F77F061204F77FC6
:0404C900010204F731
:0E04DD0057656C636F6D652100627973630073
:100450001204B97BFF7A0479DD120478E4FD7F0190
:1004600012049D7BFF7A0479E61204787FF47E0102
:080470001204307F010204F7C1
:060212008B168A17891803
:10021800E4F51DC37403951D25E025E0F51FF51EC3
:10022800E51F2404FFE433FEC3E51E9FEE6480F857
:100238007480985047AB19E51B251DF9E4351AFA67
:10024800C003C002C0011200F9FDAB16AA17A91815
:100258001201C8AEF0A81E088005CEC313CE13D86D
:10026800F9540104FFEDA807088002C333D8FCD075
:1002780001D002D003120194051E80A4AB19AA1A5A
:10028800A91B851D82758300120112FFC3940040CB
:1002980013EFD39409500D851D82758300743012B5
:1002A80001618021AB19AA1AA91B851D82758300DB
:1002B800120112FFC3940A400CEF2437851D827582
:1002C80083001201A6AB19AA1AA91B90000474484E
:1002D8001201A6051DE51D6404600302021B7F01CF
:1002E8001204F7E4FD7F0112049DAB19AA1AA91B99
:0302F80002047885
:1003EE001201C8FFAEF0E529B431047D0180027D13
:1003FE0000ED04FDEFA805088005C333CE33CED83B
:10040E00F9FFEE8FF01201F3AB26AA27A92874018B
:03041E0002013F99
:030000000204EB0C
:0C04EB00787FE4F6D8FD7581290202FB41
:10000300E709F608DFFA8046E709F208DFFA803EDF
:1000130088828C83E709F0A3DFFA8032E309F608CC
:10002300DFFA8078E309F208DFFA807088828C8334
:10003300E309F0A3DFFA806489828A83E0A3F608E8
:10004300DFFA805889828A83E0A3F208DFFA804CC2
:1000530080D280FA80C680D4806980F28033801099
:1000630080A680EA809A80A880DA80E280CA803302
:1000730089828A83ECFAE493A3C8C582C8CCC5837A
:10008300CCF0A3C8C582C8CCC583CCDFE9DEE7804A
:100093000D89828A83E493A3F608DFF9ECFAA9F0C9
:1000A300EDFB2289828A83ECFAE0A3C8C582C8CC1F
:1000B300C583CCF0A3C8C582C8CCC583CCDFEADE38
:1000C300E880DB89828A83E493A3F208DFF980CC9A
:1000D30088F0EF60010E4E60C388F0ED2402B40493
:1000E3000050B9F582EB2402B4040050AF2323453A
:0600F3008223900053730C
:1000F900BB010689828A83E0225002E722BBFE0205
:09010900E32289828A83E4932237
:10011200BB010CE58229F582E5833AF583E02250A2
:1001220006E92582F8E622BBFE06E92582F8E222EC
:0D013200E58229F582E5833AF583E4932206
:10013F00BB010989828A83F8E028F022500327F750
:10014F0022BBFE05F8E328F3228A838982F8E49321
:02015F00282254
:10016100BB010FF8E58229F582E5833AF583E028A2
:10017100F0225009C58229F8E58226F622BBFE0944
:10018100C58229F8E22582F222F8EA2583F583E97E
:030191009328228E
:10019400BB010689828A83F0225002F722BBFE014A
:0201A400F32244
:1001A600F8BB010DE58229F582E5833AF583E8F08F
:1001B600225006E92582C8F622BBFE05E92582C83B
:0201C600F22223
:1001C800BB010A89828A83E0F5F0A3E02250068702
:1001D800F009E71922BBFE07E3F5F009E3192289C4
:0B01E800828A83E493F5F074019322F7
:1001F300BB010A89828A83F0E5F0A3F0225006F757
:0F02030009A7F01922BBFE06F3E5F009F3192253
:00000001FF
